{
  "contractName": "DSchool",
  "abi": [
    {
      "constant": true,
      "inputs": [
        {
          "internalType": "uint256",
          "name": "",
          "type": "uint256"
        }
      ],
      "name": "Assignments",
      "outputs": [
        {
          "internalType": "string",
          "name": "name",
          "type": "string"
        },
        {
          "internalType": "string",
          "name": "tech",
          "type": "string"
        },
        {
          "internalType": "uint256",
          "name": "stdId",
          "type": "uint256"
        },
        {
          "internalType": "address",
          "name": "student",
          "type": "address"
        },
        {
          "internalType": "uint256",
          "name": "approvedTime",
          "type": "uint256"
        },
        {
          "internalType": "bool",
          "name": "valid",
          "type": "bool"
        }
      ],
      "payable": false,
      "stateMutability": "view",
      "type": "function"
    },
    {
      "constant": true,
      "inputs": [],
      "name": "CurrentEvaId",
      "outputs": [
        {
          "internalType": "uint256",
          "name": "",
          "type": "uint256"
        }
      ],
      "payable": false,
      "stateMutability": "view",
      "type": "function"
    },
    {
      "constant": true,
      "inputs": [],
      "name": "CurrentStdId",
      "outputs": [
        {
          "internalType": "uint256",
          "name": "",
          "type": "uint256"
        }
      ],
      "payable": false,
      "stateMutability": "view",
      "type": "function"
    },
    {
      "constant": true,
      "inputs": [
        {
          "internalType": "address",
          "name": "",
          "type": "address"
        },
        {
          "internalType": "uint256",
          "name": "",
          "type": "uint256"
        }
      ],
      "name": "approvedList",
      "outputs": [
        {
          "internalType": "bool",
          "name": "",
          "type": "bool"
        }
      ],
      "payable": false,
      "stateMutability": "view",
      "type": "function"
    },
    {
      "constant": false,
      "inputs": [
        {
          "internalType": "string",
          "name": "_name",
          "type": "string"
        },
        {
          "internalType": "uint256",
          "name": "_age",
          "type": "uint256"
        }
      ],
      "name": "setStudent",
      "outputs": [],
      "payable": false,
      "stateMutability": "nonpayable",
      "type": "function"
    },
    {
      "constant": true,
      "inputs": [],
      "name": "getStudent",
      "outputs": [
        {
          "internalType": "uint256",
          "name": "_stdId",
          "type": "uint256"
        },
        {
          "internalType": "string",
          "name": "_name",
          "type": "string"
        },
        {
          "internalType": "uint256",
          "name": "_age",
          "type": "uint256"
        }
      ],
      "payable": false,
      "stateMutability": "view",
      "type": "function"
    },
    {
      "constant": false,
      "inputs": [
        {
          "internalType": "string",
          "name": "_name",
          "type": "string"
        },
        {
          "internalType": "string",
          "name": "_skill",
          "type": "string"
        },
        {
          "internalType": "uint256",
          "name": "_skillRank",
          "type": "uint256"
        }
      ],
      "name": "setApprover",
      "outputs": [],
      "payable": false,
      "stateMutability": "nonpayable",
      "type": "function"
    },
    {
      "constant": true,
      "inputs": [],
      "name": "getApprover",
      "outputs": [
        {
          "internalType": "uint256",
          "name": "_evaId",
          "type": "uint256"
        },
        {
          "internalType": "string",
          "name": "_name",
          "type": "string"
        },
        {
          "internalType": "string",
          "name": "_skill",
          "type": "string"
        },
        {
          "internalType": "uint256",
          "name": "_skillRank",
          "type": "uint256"
        }
      ],
      "payable": false,
      "stateMutability": "view",
      "type": "function"
    },
    {
      "constant": false,
      "inputs": [
        {
          "internalType": "string",
          "name": "_name",
          "type": "string"
        },
        {
          "internalType": "string",
          "name": "_tech",
          "type": "string"
        }
      ],
      "name": "taskSubmission",
      "outputs": [],
      "payable": false,
      "stateMutability": "nonpayable",
      "type": "function"
    },
    {
      "constant": false,
      "inputs": [
        {
          "internalType": "uint256",
          "name": "_position",
          "type": "uint256"
        }
      ],
      "name": "Upvoting",
      "outputs": [
        {
          "internalType": "bool",
          "name": "",
          "type": "bool"
        }
      ],
      "payable": false,
      "stateMutability": "nonpayable",
      "type": "function"
    },
    {
      "constant": true,
      "inputs": [],
      "name": "TotalTasks",
      "outputs": [
        {
          "internalType": "uint256",
          "name": "_total",
          "type": "uint256"
        }
      ],
      "payable": false,
      "stateMutability": "view",
      "type": "function"
    },
    {
      "constant": true,
      "inputs": [
        {
          "internalType": "uint256",
          "name": "_position",
          "type": "uint256"
        }
      ],
      "name": "viewAssignment",
      "outputs": [
        {
          "internalType": "string",
          "name": "_name",
          "type": "string"
        },
        {
          "internalType": "string",
          "name": "_tech",
          "type": "string"
        },
        {
          "internalType": "uint256",
          "name": "_stdId",
          "type": "uint256"
        },
        {
          "internalType": "uint256[]",
          "name": "_approvers",
          "type": "uint256[]"
        },
        {
          "internalType": "uint256",
          "name": "_time",
          "type": "uint256"
        },
        {
          "internalType": "bool",
          "name": "_valid",
          "type": "bool"
        }
      ],
      "payable": false,
      "stateMutability": "view",
      "type": "function"
    }
  ],
  "bytecode": "0x60806040526000600455600060055534801561001a57600080fd5b5061247a8061002a6000396000f3fe608060405234801561001057600080fd5b50600436106100b45760003560e01c8063aee6638811610071578063aee66388146105a5578063b0d395411461060b578063b439548d14610767578063c3a37653146107f8578063d4b6c96114610816578063e110f82014610834576100b4565b806321708dd7146100b95780634bf0226b146100ff578063583a269b146102735780639b4d52dd14610370578063a3d425b214610435578063a436f87f14610453575b600080fd5b6100e5600480360360208110156100cf57600080fd5b8101908080359060200190929190505050610993565b604051808215151515815260200191505060405180910390f35b61012b6004803603602081101561011557600080fd5b8101908080359060200190929190505050610fe4565b604051808060200180602001878152602001806020018681526020018515151515815260200184810384528a818151815260200191508051906020019080838360005b8381101561018957808201518184015260208101905061016e565b50505050905090810190601f1680156101b65780820380516001836020036101000a031916815260200191505b50848103835289818151815260200191508051906020019080838360005b838110156101ef5780820151818401526020810190506101d4565b50505050905090810190601f16801561021c5780820380516001836020036101000a031916815260200191505b50848103825287818151815260200191508051906020019060200280838360005b8381101561025857808201518184015260208101905061023d565b50505050905001995050505050505050505060405180910390f35b61027b611251565b604051808581526020018060200180602001848152602001838103835286818151815260200191508051906020019080838360005b838110156102cb5780820151818401526020810190506102b0565b50505050905090810190601f1680156102f85780820380516001836020036101000a031916815260200191505b50838103825285818151815260200191508051906020019080838360005b83811015610331578082015181840152602081019050610316565b50505050905090810190601f16801561035e5780820380516001836020036101000a031916815260200191505b50965050505050505060405180910390f35b6104336004803603604081101561038657600080fd5b81019080803590602001906401000000008111156103a357600080fd5b8201836020820111156103b557600080fd5b803590602001918460018302840111640100000000831117156103d757600080fd5b91908080601f016020809104026020016040519081016040528093929190818152602001838380828437600081840152601f19601f820116905080830192505050505050509192919290803590602001909291905050506114a2565b005b61043d611839565b6040518082815260200191505060405180910390f35b6105a36004803603604081101561046957600080fd5b810190808035906020019064010000000081111561048657600080fd5b82018360208201111561049857600080fd5b803590602001918460018302840111640100000000831117156104ba57600080fd5b91908080601f016020809104026020016040519081016040528093929190818152602001838380828437600081840152601f19601f8201169050808301925050505050505091929192908035906020019064010000000081111561051d57600080fd5b82018360208201111561052f57600080fd5b8035906020019184600183028401116401000000008311171561055157600080fd5b91908080601f016020809104026020016040519081016040528093929190818152602001838380828437600081840152601f19601f82011690508083019250505050505050919291929050505061183f565b005b6105f1600480360360408110156105bb57600080fd5b81019080803573ffffffffffffffffffffffffffffffffffffffff16906020019092919080359060200190929190505050611b77565b604051808215151515815260200191505060405180910390f35b6107656004803603606081101561062157600080fd5b810190808035906020019064010000000081111561063e57600080fd5b82018360208201111561065057600080fd5b8035906020019184600183028401116401000000008311171561067257600080fd5b91908080601f016020809104026020016040519081016040528093929190818152602001838380828437600081840152601f19601f820116905080830192505050505050509192919290803590602001906401000000008111156106d557600080fd5b8201836020820111156106e757600080fd5b8035906020019184600183028401116401000000008311171561070957600080fd5b91908080601f016020809104026020016040519081016040528093929190818152602001838380828437600081840152601f19601f82011690508083019250505050505050919291929080359060200190929190505050611ba6565b005b61076f611f62565b6040518084815260200180602001838152602001828103825284818151815260200191508051906020019080838360005b838110156107bb5780820151818401526020810190506107a0565b50505050905090810190601f1680156107e85780820380516001836020036101000a031916815260200191505b5094505050505060405180910390f35b6108006120d4565b6040518082815260200191505060405180910390f35b61081e6120e1565b6040518082815260200191505060405180910390f35b6108606004803603602081101561084a57600080fd5b81019080803590602001909291905050506120e7565b6040518080602001806020018781526020018673ffffffffffffffffffffffffffffffffffffffff1673ffffffffffffffffffffffffffffffffffffffff16815260200185815260200184151515158152602001838103835289818151815260200191508051906020019080838360005b838110156108ec5780820151818401526020810190506108d1565b50505050905090810190601f1680156109195780820380516001836020036101000a031916815260200191505b50838103825288818151815260200191508051906020019080838360005b83811015610952578082015181840152602081019050610937565b50505050905090810190601f16801561097f5780820380516001836020036101000a031916815260200191505b509850505050505050505060405180910390f35b600080600160003373ffffffffffffffffffffffffffffffffffffffff1673ffffffffffffffffffffffffffffffffffffffff1681526020019081526020016000206000015414610a4c576040517f08c379a00000000000000000000000000000000000000000000000000000000081526004018080602001828103825260118152602001807f4d757374206265204576616c7561746f7200000000000000000000000000000081525060200191505060405180910390fd5b6000600260003373ffffffffffffffffffffffffffffffffffffffff1673ffffffffffffffffffffffffffffffffffffffff1681526020019081526020016000206000015411610b04576040517f08c379a00000000000000000000000000000000000000000000000000000000081526004018080602001828103825260198152602001807f4576616c7561746f72204d75737420526567697374657265640000000000000081525060200191505060405180910390fd5b81600260003373ffffffffffffffffffffffffffffffffffffffff1673ffffffffffffffffffffffffffffffffffffffff1681526020019081526020016000206002016040516020018082805460018160011615610100020316600290048015610ba55780601f10610b83576101008083540402835291820191610ba5565b820191906000526020600020905b815481529060010190602001808311610b91575b50509150506040516020818303038152906040528051906020012060038281548110610bcd57fe5b90600052602060002090600702016001016040516020018082805460018160011615610100020316600290048015610c3c5780601f10610c1a576101008083540402835291820191610c3c565b820191906000526020600020905b815481529060010190602001808311610c28575b50509150506040516020818303038152906040528051906020012014610cad576040517f08c379a00000000000000000000000000000000000000000000000000000000081526004018080602001828103825260218152602001806124256021913960400191505060405180910390fd5b6103e8600260003373ffffffffffffffffffffffffffffffffffffffff1673ffffffffffffffffffffffffffffffffffffffff1681526020019081526020016000206003015411610d49576040517f08c379a00000000000000000000000000000000000000000000000000000000081526004018080602001828103825260268152602001806123d56026913960400191505060405180910390fd5b600015156000803373ffffffffffffffffffffffffffffffffffffffff1673ffffffffffffffffffffffffffffffffffffffff168152602001908152602001600020600083815260200190815260200160002060009054906101000a900460ff16151514610e02576040517f08c379a000000000000000000000000000000000000000000000000000000000815260040180806020018281038252602a8152602001806123fb602a913960400191505060405180910390fd5b6000600260003373ffffffffffffffffffffffffffffffffffffffff1673ffffffffffffffffffffffffffffffffffffffff16815260200190815260200160002060000154905060038481548110610e5657fe5b906000526020600020906007020160040181908060018154018082558091505090600182039060005260206000200160009091929091909150555060016000803373ffffffffffffffffffffffffffffffffffffffff1673ffffffffffffffffffffffffffffffffffffffff168152602001908152602001600020600086815260200190815260200160002060006101000a81548160ff021916908315150217905550600560038581548110610f0857fe5b9060005260206000209060070201600401805490501415610f7e57600160038581548110610f3257fe5b906000526020600020906007020160060160006101000a81548160ff0219169083151502179055504260038581548110610f6857fe5b9060005260206000209060070201600501819055505b6000803373ffffffffffffffffffffffffffffffffffffffff1673ffffffffffffffffffffffffffffffffffffffff168152602001908152602001600020600085815260200190815260200160002060009054906101000a900460ff1692505050919050565b6060806000606060008060038781548110610ffb57fe5b90600052602060002090600702016000016003888154811061101957fe5b90600052602060002090600702016001016003898154811061103757fe5b90600052602060002090600702016002015460038a8154811061105657fe5b906000526020600020906007020160040160038b8154811061107457fe5b90600052602060002090600702016005015460038c8154811061109357fe5b906000526020600020906007020160060160009054906101000a900460ff16858054600181600116156101000203166002900480601f0160208091040260200160405190810160405280929190818152602001828054600181600116156101000203166002900480156111475780601f1061111c57610100808354040283529160200191611147565b820191906000526020600020905b81548152906001019060200180831161112a57829003601f168201915b50505050509550848054600181600116156101000203166002900480601f0160208091040260200160405190810160405280929190818152602001828054600181600116156101000203166002900480156111e35780601f106111b8576101008083540402835291602001916111e3565b820191906000526020600020905b8154815290600101906020018083116111c657829003601f168201915b505050505094508280548060200260200160405190810160405280929190818152602001828054801561123557602002820191906000526020600020905b815481526020019060010190808311611221575b5050505050925095509550955095509550955091939550919395565b60006060806000600260003373ffffffffffffffffffffffffffffffffffffffff1673ffffffffffffffffffffffffffffffffffffffff168152602001908152602001600020600001549350600260003373ffffffffffffffffffffffffffffffffffffffff1673ffffffffffffffffffffffffffffffffffffffff1681526020019081526020016000206001018054600181600116156101000203166002900480601f0160208091040260200160405190810160405280929190818152602001828054600181600116156101000203166002900480156113735780601f1061134857610100808354040283529160200191611373565b820191906000526020600020905b81548152906001019060200180831161135657829003601f168201915b50505050509250600260003373ffffffffffffffffffffffffffffffffffffffff1673ffffffffffffffffffffffffffffffffffffffff1681526020019081526020016000206002018054600181600116156101000203166002900480601f0160208091040260200160405190810160405280929190818152602001828054600181600116156101000203166002900480156114505780601f1061142557610100808354040283529160200191611450565b820191906000526020600020905b81548152906001019060200180831161143357829003601f168201915b50505050509150600260003373ffffffffffffffffffffffffffffffffffffffff1673ffffffffffffffffffffffffffffffffffffffff16815260200190815260200160002060030154905090919293565b600080811415611621576000600260003373ffffffffffffffffffffffffffffffffffffffff1673ffffffffffffffffffffffffffffffffffffffff1681526020019081526020016000206000015414611564576040517f08c379a000000000000000000000000000000000000000000000000000000000815260040180806020018281038252601a8152602001807f4576616c7561746f722043616e27742062652053747564656e7400000000000081525060200191505060405180910390fd5b6000600160003373ffffffffffffffffffffffffffffffffffffffff1673ffffffffffffffffffffffffffffffffffffffff168152602001908152602001600020600001541461161c576040517f08c379a00000000000000000000000000000000000000000000000000000000081526004018080602001828103825260128152602001807f416c72656164792052656769737465726564000000000000000000000000000081525060200191505060405180910390fd5b611792565b6000600160003373ffffffffffffffffffffffffffffffffffffffff1673ffffffffffffffffffffffffffffffffffffffff16815260200190815260200160002060000154146116d9576040517f08c379a000000000000000000000000000000000000000000000000000000000815260040180806020018281038252601a8152602001807f53747564656e742043616e2774206265204576616c7561746f7200000000000081525060200191505060405180910390fd5b6000600260003373ffffffffffffffffffffffffffffffffffffffff1673ffffffffffffffffffffffffffffffffffffffff1681526020019081526020016000206000015414611791576040517f08c379a00000000000000000000000000000000000000000000000000000000081526004018080602001828103825260128152602001807f416c72656164792052656769737465726564000000000000000000000000000081525060200191505060405180910390fd5b5b6004600081548092919060010191905055506040518060600160405280600454815260200184815260200183815250600160003373ffffffffffffffffffffffffffffffffffffffff1673ffffffffffffffffffffffffffffffffffffffff16815260200190815260200160002060008201518160000155602082015181600101908051906020019061182692919061228d565b5060408201518160020155905050505050565b60045481565b6000600260003373ffffffffffffffffffffffffffffffffffffffff1673ffffffffffffffffffffffffffffffffffffffff16815260200190815260200160002060000154146118f7576040517f08c379a000000000000000000000000000000000000000000000000000000000815260040180806020018281038252600f8152602001807f4d7573742062652053747564656e74000000000000000000000000000000000081525060200191505060405180910390fd5b6000600160003373ffffffffffffffffffffffffffffffffffffffff1673ffffffffffffffffffffffffffffffffffffffff16815260200190815260200160002060000154116119af576040517f08c379a00000000000000000000000000000000000000000000000000000000081526004018080602001828103825260178152602001807f53747564656e74204d757374205265676973746572656400000000000000000081525060200191505060405180910390fd5b6119b761230d565b828160000181905250818160200181905250600160003373ffffffffffffffffffffffffffffffffffffffff1673ffffffffffffffffffffffffffffffffffffffff1681526020019081526020016000206000015481604001818152505033816060019073ffffffffffffffffffffffffffffffffffffffff16908173ffffffffffffffffffffffffffffffffffffffff168152505080608001515060008160a001818152505060008160c0019015159081151581525050600381908060018154018082558091505090600182039060005260206000209060070201600090919290919091506000820151816000019080519060200190611ab992919061228d565b506020820151816001019080519060200190611ad692919061228d565b506040820151816002015560608201518160030160006101000a81548173ffffffffffffffffffffffffffffffffffffffff021916908373ffffffffffffffffffffffffffffffffffffffff1602179055506080820151816004019080519060200190611b44929190612362565b5060a0820151816005015560c08201518160060160006101000a81548160ff021916908315150217905550505050505050565b60006020528160005260406000206020528060005260406000206000915091509054906101000a900460ff1681565b60016000811415611d26576000600260003373ffffffffffffffffffffffffffffffffffffffff1673ffffffffffffffffffffffffffffffffffffffff1681526020019081526020016000206000015414611c69576040517f08c379a000000000000000000000000000000000000000000000000000000000815260040180806020018281038252601a8152602001807f4576616c7561746f722043616e27742062652053747564656e7400000000000081525060200191505060405180910390fd5b6000600160003373ffffffffffffffffffffffffffffffffffffffff1673ffffffffffffffffffffffffffffffffffffffff1681526020019081526020016000206000015414611d21576040517f08c379a00000000000000000000000000000000000000000000000000000000081526004018080602001828103825260128152602001807f416c72656164792052656769737465726564000000000000000000000000000081525060200191505060405180910390fd5b611e97565b6000600160003373ffffffffffffffffffffffffffffffffffffffff1673ffffffffffffffffffffffffffffffffffffffff1681526020019081526020016000206000015414611dde576040517f08c379a000000000000000000000000000000000000000000000000000000000815260040180806020018281038252601a8152602001807f53747564656e742043616e2774206265204576616c7561746f7200000000000081525060200191505060405180910390fd5b6000600260003373ffffffffffffffffffffffffffffffffffffffff1673ffffffffffffffffffffffffffffffffffffffff1681526020019081526020016000206000015414611e96576040517f08c379a00000000000000000000000000000000000000000000000000000000081526004018080602001828103825260128152602001807f416c72656164792052656769737465726564000000000000000000000000000081525060200191505060405180910390fd5b5b6005600081548092919060010191905055506040518060800160405280600554815260200185815260200184815260200183815250600260003373ffffffffffffffffffffffffffffffffffffffff1673ffffffffffffffffffffffffffffffffffffffff168152602001908152602001600020600082015181600001556020820151816001019080519060200190611f3192919061228d565b506040820151816002019080519060200190611f4e92919061228d565b506060820151816003015590505050505050565b600060606000600160003373ffffffffffffffffffffffffffffffffffffffff1673ffffffffffffffffffffffffffffffffffffffff168152602001908152602001600020600001549250600160003373ffffffffffffffffffffffffffffffffffffffff1673ffffffffffffffffffffffffffffffffffffffff1681526020019081526020016000206001018054600181600116156101000203166002900480601f0160208091040260200160405190810160405280929190818152602001828054600181600116156101000203166002900480156120835780601f1061205857610100808354040283529160200191612083565b820191906000526020600020905b81548152906001019060200180831161206657829003601f168201915b50505050509150600160003373ffffffffffffffffffffffffffffffffffffffff1673ffffffffffffffffffffffffffffffffffffffff168152602001908152602001600020600201549050909192565b6000600380549050905090565b60055481565b600381815481106120f457fe5b9060005260206000209060070201600091509050806000018054600181600116156101000203166002900480601f0160208091040260200160405190810160405280929190818152602001828054600181600116156101000203166002900480156121a05780601f10612175576101008083540402835291602001916121a0565b820191906000526020600020905b81548152906001019060200180831161218357829003601f168201915b505050505090806001018054600181600116156101000203166002900480601f01602080910402602001604051908101604052809291908181526020018280546001816001161561010002031660029004801561223e5780601f106122135761010080835404028352916020019161223e565b820191906000526020600020905b81548152906001019060200180831161222157829003601f168201915b5050505050908060020154908060030160009054906101000a900473ffffffffffffffffffffffffffffffffffffffff16908060050154908060060160009054906101000a900460ff16905086565b828054600181600116156101000203166002900490600052602060002090601f016020900481019282601f106122ce57805160ff19168380011785556122fc565b828001600101855582156122fc579182015b828111156122fb5782518255916020019190600101906122e0565b5b50905061230991906123af565b5090565b6040518060e00160405280606081526020016060815260200160008152602001600073ffffffffffffffffffffffffffffffffffffffff16815260200160608152602001600081526020016000151581525090565b82805482825590600052602060002090810192821561239e579160200282015b8281111561239d578251825591602001919060010190612382565b5b5090506123ab91906123af565b5090565b6123d191905b808211156123cd5760008160009055506001016123b5565b5090565b9056fe4e65656420637265646962696c6974792053636f7265204d6f7265207468616e203130303020596f75206861766520616c726561647920617070726f76656420746869732061737369676e6d656e7421596f7520446f6e2774204b6e6f77202c2057686174205465636820697420697320a265627a7a7231582007cf74850bde47ecf68d589c6eecdd6f2e8965cbd497cbe3b6b51af6650b5cca64736f6c634300050c0032",
  "source": "pragma solidity ^0.5.12;\n\ncontract DSchool {\n    struct Student {\n        uint stdId;\n        string name;\n        uint age;\n    }\n    struct Approver{\n        uint approverId;\n        string name;\n        string skill;\n        uint skillRank;\n        // uint[] approvedTasks;\n    }\n    struct Task{\n        string name;\n        string tech;\n        uint stdId;\n        address student;\n        uint[] approvers;\n        uint approvedTime;\n        bool valid;\n    }\n    \n    mapping (address => mapping (uint => bool)) public approvedList;\n    mapping (address => Student) Std;\n    mapping (address => Approver) Evaluator;\n    Task[] public Assignments ;\n    uint public CurrentStdId = 0;\n    uint public CurrentEvaId = 0;\n    \n    modifier userRegister(uint number) {\n        if(number == 0){\n            require(Evaluator[msg.sender].approverId == 0,\"Evaluator Can't be Student\");\n            require(Std[msg.sender].stdId == 0,\"Already Registered\");\n        }else{\n            require(Std[msg.sender].stdId == 0,\"Student Can't be Evaluator\");\n            require(Evaluator[msg.sender].approverId == 0,\"Already Registered\");\n        }\n        _;\n    }\n    modifier onlyStudent() {\n        require(Evaluator[msg.sender].approverId == 0,\"Must be Student\");\n        require(Std[msg.sender].stdId > 0,\"Student Must Registered\");\n        _;\n    }\n    modifier onlyApprover() {\n        require(Std[msg.sender].stdId == 0,\"Must be Evaluator\");\n        require(Evaluator[msg.sender].approverId > 0,\"Evaluator Must Registered\");\n        _;\n    }\n    modifier eligibility(uint _position) {\n        require( keccak256(abi.encodePacked(Assignments[_position].tech)) ==  keccak256(abi.encodePacked(Evaluator[msg.sender].skill)),\"You Don't Know , What Tech it is \");\n        require( Evaluator[msg.sender].skillRank > 1000,\"Need credibility Score More than 1000 \");\n        // require(Assignments[_position].valid == false, \"Approval limit reached!\"); \n        require(approvedList[msg.sender][_position] == false, \"You have already approved this assignment!\");\n        _;\n    }\n    function setStudent( string memory _name, uint _age) public userRegister(0)  {\n        CurrentStdId++;\n        Std[msg.sender] = Student(CurrentStdId,_name, _age);\n    }\n    function getStudent() public view returns (uint _stdId,string memory _name, uint _age){\n        _stdId = Std[msg.sender].stdId;\n        _name = Std[msg.sender].name;\n        _age = Std[msg.sender].age;\n    }\n    function setApprover(string memory _name,string memory _skill, uint _skillRank) public userRegister(1) {\n        CurrentEvaId++;\n        Evaluator[msg.sender] = Approver(CurrentEvaId,_name, _skill,_skillRank);\n    }\n    function getApprover() public view returns (uint _evaId,string memory _name,string memory _skill, uint _skillRank){\n        _evaId = Evaluator[msg.sender].approverId;\n        _name = Evaluator[msg.sender].name;\n        _skill = Evaluator[msg.sender].skill;\n        _skillRank = Evaluator[msg.sender].skillRank;\n    }\n    function taskSubmission(string memory _name,string memory _tech) public onlyStudent{\n        Task memory task;\n        task.name = _name;\n        task.tech = _tech;\n        task.stdId = Std[msg.sender].stdId;\n        task.student = msg.sender;\n        task.approvers;\n        task.approvedTime = 0;\n        task.valid = false;\n        Assignments.push(task);\n   \n    }\n    function Upvoting(uint _position) public onlyApprover eligibility(_position) returns (bool) {\n        // uint counter = Assignments[_position].approveCount;\n        uint evalId = Evaluator[msg.sender].approverId;\n        Assignments[_position].approvers.push(evalId);\n        approvedList[msg.sender][_position] = true;\n        if(Assignments[_position].approvers.length == 5){\n            Assignments[_position].valid = true;\n            Assignments[_position].approvedTime = now;\n        }\n        return approvedList[msg.sender][_position];\n    }\n    function TotalTasks() public view returns(uint _total) {\n        return Assignments.length;\n    }\n    function viewAssignment (uint _position) public view  returns (string memory _name,string memory _tech,uint _stdId,uint[] memory _approvers,uint _time,bool _valid){\n        return(Assignments[_position].name,Assignments[_position].tech,Assignments[_position].stdId,Assignments[_position].approvers,Assignments[_position].approvedTime,Assignments[_position].valid);\n    }\n}\n",
  "sourcePath": "/home/denny/Code/tasks/DSchool/contracts/DSchool.sol",
  "compiler": {
    "name": "solc",
    "version": "0.5.12+commit.7709ece9.Emscripten.clang"
  },
  "schemaVersion": "3.0.16",
  "updatedAt": "2019-10-18T10:08:53.915Z",
  "devdoc": {
    "methods": {}
  },
  "userdoc": {
    "methods": {}
  }
}