{
  "contractName": "DSchool",
  "abi": [
    {
      "constant": true,
      "inputs": [
        {
          "internalType": "uint256",
          "name": "",
          "type": "uint256"
        }
      ],
      "name": "Assignments",
      "outputs": [
        {
          "internalType": "string",
          "name": "name",
          "type": "string"
        },
        {
          "internalType": "string",
          "name": "tech",
          "type": "string"
        },
        {
          "internalType": "uint256",
          "name": "stdId",
          "type": "uint256"
        },
        {
          "internalType": "address",
          "name": "student",
          "type": "address"
        },
        {
          "internalType": "uint256",
          "name": "approveCount",
          "type": "uint256"
        },
        {
          "internalType": "uint256",
          "name": "approvedTime",
          "type": "uint256"
        },
        {
          "internalType": "bool",
          "name": "valid",
          "type": "bool"
        }
      ],
      "payable": false,
      "stateMutability": "view",
      "type": "function"
    },
    {
      "constant": true,
      "inputs": [],
      "name": "CurrentEvaId",
      "outputs": [
        {
          "internalType": "uint256",
          "name": "",
          "type": "uint256"
        }
      ],
      "payable": false,
      "stateMutability": "view",
      "type": "function"
    },
    {
      "constant": true,
      "inputs": [],
      "name": "CurrentStdId",
      "outputs": [
        {
          "internalType": "uint256",
          "name": "",
          "type": "uint256"
        }
      ],
      "payable": false,
      "stateMutability": "view",
      "type": "function"
    },
    {
      "constant": true,
      "inputs": [
        {
          "internalType": "address",
          "name": "",
          "type": "address"
        },
        {
          "internalType": "uint256",
          "name": "",
          "type": "uint256"
        }
      ],
      "name": "approvedList",
      "outputs": [
        {
          "internalType": "bool",
          "name": "",
          "type": "bool"
        }
      ],
      "payable": false,
      "stateMutability": "view",
      "type": "function"
    },
    {
      "constant": false,
      "inputs": [
        {
          "internalType": "string",
          "name": "_name",
          "type": "string"
        },
        {
          "internalType": "uint256",
          "name": "_age",
          "type": "uint256"
        }
      ],
      "name": "setStudent",
      "outputs": [],
      "payable": false,
      "stateMutability": "nonpayable",
      "type": "function"
    },
    {
      "constant": true,
      "inputs": [],
      "name": "getStudent",
      "outputs": [
        {
          "internalType": "uint256",
          "name": "_stdId",
          "type": "uint256"
        },
        {
          "internalType": "string",
          "name": "_name",
          "type": "string"
        },
        {
          "internalType": "uint256",
          "name": "_age",
          "type": "uint256"
        }
      ],
      "payable": false,
      "stateMutability": "view",
      "type": "function"
    },
    {
      "constant": false,
      "inputs": [
        {
          "internalType": "string",
          "name": "_name",
          "type": "string"
        },
        {
          "internalType": "string",
          "name": "_skill",
          "type": "string"
        },
        {
          "internalType": "uint256",
          "name": "_skillRank",
          "type": "uint256"
        }
      ],
      "name": "setApprover",
      "outputs": [],
      "payable": false,
      "stateMutability": "nonpayable",
      "type": "function"
    },
    {
      "constant": true,
      "inputs": [],
      "name": "getApprover",
      "outputs": [
        {
          "internalType": "uint256",
          "name": "_evaId",
          "type": "uint256"
        },
        {
          "internalType": "string",
          "name": "_name",
          "type": "string"
        },
        {
          "internalType": "string",
          "name": "_skill",
          "type": "string"
        },
        {
          "internalType": "uint256",
          "name": "_skillRank",
          "type": "uint256"
        }
      ],
      "payable": false,
      "stateMutability": "view",
      "type": "function"
    },
    {
      "constant": false,
      "inputs": [
        {
          "internalType": "string",
          "name": "_name",
          "type": "string"
        },
        {
          "internalType": "string",
          "name": "_tech",
          "type": "string"
        }
      ],
      "name": "taskSubmission",
      "outputs": [],
      "payable": false,
      "stateMutability": "nonpayable",
      "type": "function"
    },
    {
      "constant": false,
      "inputs": [
        {
          "internalType": "uint256",
          "name": "_position",
          "type": "uint256"
        }
      ],
      "name": "Upvoting",
      "outputs": [
        {
          "internalType": "bool",
          "name": "",
          "type": "bool"
        }
      ],
      "payable": false,
      "stateMutability": "nonpayable",
      "type": "function"
    },
    {
      "constant": true,
      "inputs": [
        {
          "internalType": "uint256",
          "name": "_position",
          "type": "uint256"
        }
      ],
      "name": "viewApprovers",
      "outputs": [
        {
          "internalType": "uint256[]",
          "name": "",
          "type": "uint256[]"
        },
        {
          "internalType": "uint256",
          "name": "",
          "type": "uint256"
        }
      ],
      "payable": false,
      "stateMutability": "view",
      "type": "function"
    }
  ],
  "bytecode": "0x60806040526000600455600060055534801561001a57600080fd5b5061234f8061002a6000396000f3fe608060405234801561001057600080fd5b50600436106100a95760003560e01c8063a436f87f11610071578063a436f87f1461035e578063aee66388146104b0578063b0d3954114610516578063b439548d14610672578063d4b6c96114610703578063e110f82014610721576100a9565b806321708dd7146100ae5780632cb9da6d146100f4578063583a269b1461017e5780639b4d52dd1461027b578063a3d425b214610340575b600080fd5b6100da600480360360208110156100c457600080fd5b8101908080359060200190929190505050610887565b604051808215151515815260200191505060405180910390f35b6101206004803603602081101561010a57600080fd5b8101908080359060200190929190505050610f02565b6040518080602001838152602001828103825284818151815260200191508051906020019060200280838360005b8381101561016957808201518184015260208101905061014e565b50505050905001935050505060405180910390f35b610186611110565b604051808581526020018060200180602001848152602001838103835286818151815260200191508051906020019080838360005b838110156101d65780820151818401526020810190506101bb565b50505050905090810190601f1680156102035780820380516001836020036101000a031916815260200191505b50838103825285818151815260200191508051906020019080838360005b8381101561023c578082015181840152602081019050610221565b50505050905090810190601f1680156102695780820380516001836020036101000a031916815260200191505b50965050505050505060405180910390f35b61033e6004803603604081101561029157600080fd5b81019080803590602001906401000000008111156102ae57600080fd5b8201836020820111156102c057600080fd5b803590602001918460018302840111640100000000831117156102e257600080fd5b91908080601f016020809104026020016040519081016040528093929190818152602001838380828437600081840152601f19601f82011690508083019250505050505050919291929080359060200190929190505050611361565b005b6103486116f8565b6040518082815260200191505060405180910390f35b6104ae6004803603604081101561037457600080fd5b810190808035906020019064010000000081111561039157600080fd5b8201836020820111156103a357600080fd5b803590602001918460018302840111640100000000831117156103c557600080fd5b91908080601f016020809104026020016040519081016040528093929190818152602001838380828437600081840152601f19601f8201169050808301925050505050505091929192908035906020019064010000000081111561042857600080fd5b82018360208201111561043a57600080fd5b8035906020019184600183028401116401000000008311171561045c57600080fd5b91908080601f016020809104026020016040519081016040528093929190818152602001838380828437600081840152601f19601f8201169050808301925050505050505091929192905050506116fe565b005b6104fc600480360360408110156104c657600080fd5b81019080803573ffffffffffffffffffffffffffffffffffffffff16906020019092919080359060200190929190505050611a4b565b604051808215151515815260200191505060405180910390f35b6106706004803603606081101561052c57600080fd5b810190808035906020019064010000000081111561054957600080fd5b82018360208201111561055b57600080fd5b8035906020019184600183028401116401000000008311171561057d57600080fd5b91908080601f016020809104026020016040519081016040528093929190818152602001838380828437600081840152601f19601f820116905080830192505050505050509192919290803590602001906401000000008111156105e057600080fd5b8201836020820111156105f257600080fd5b8035906020019184600183028401116401000000008311171561061457600080fd5b91908080601f016020809104026020016040519081016040528093929190818152602001838380828437600081840152601f19601f82011690508083019250505050505050919291929080359060200190929190505050611a7a565b005b61067a611e36565b6040518084815260200180602001838152602001828103825284818151815260200191508051906020019080838360005b838110156106c65780820151818401526020810190506106ab565b50505050905090810190601f1680156106f35780820380516001836020036101000a031916815260200191505b5094505050505060405180910390f35b61070b611fa8565b6040518082815260200191505060405180910390f35b61074d6004803603602081101561073757600080fd5b8101908080359060200190929190505050611fae565b6040518080602001806020018881526020018773ffffffffffffffffffffffffffffffffffffffff1673ffffffffffffffffffffffffffffffffffffffff1681526020018681526020018581526020018415151515815260200183810383528a818151815260200191508051906020019080838360005b838110156107df5780820151818401526020810190506107c4565b50505050905090810190601f16801561080c5780820380516001836020036101000a031916815260200191505b50838103825289818151815260200191508051906020019080838360005b8381101561084557808201518184015260208101905061082a565b50505050905090810190601f1680156108725780820380516001836020036101000a031916815260200191505b50995050505050505050505060405180910390f35b600080600160003373ffffffffffffffffffffffffffffffffffffffff1673ffffffffffffffffffffffffffffffffffffffff1681526020019081526020016000206000015414610940576040517f08c379a00000000000000000000000000000000000000000000000000000000081526004018080602001828103825260118152602001807f4d757374206265204576616c7561746f7200000000000000000000000000000081525060200191505060405180910390fd5b6000600260003373ffffffffffffffffffffffffffffffffffffffff1673ffffffffffffffffffffffffffffffffffffffff16815260200190815260200160002060000154116109f8576040517f08c379a00000000000000000000000000000000000000000000000000000000081526004018080602001828103825260198152602001807f4576616c7561746f72204d75737420526567697374657265640000000000000081525060200191505060405180910390fd5b81600260003373ffffffffffffffffffffffffffffffffffffffff1673ffffffffffffffffffffffffffffffffffffffff1681526020019081526020016000206002016040516020018082805460018160011615610100020316600290048015610a995780601f10610a77576101008083540402835291820191610a99565b820191906000526020600020905b815481529060010190602001808311610a85575b50509150506040516020818303038152906040528051906020012060038281548110610ac157fe5b90600052602060002090600802016001016040516020018082805460018160011615610100020316600290048015610b305780601f10610b0e576101008083540402835291820191610b30565b820191906000526020600020905b815481529060010190602001808311610b1c575b50509150506040516020818303038152906040528051906020012014610ba1576040517f08c379a00000000000000000000000000000000000000000000000000000000081526004018080602001828103825260218152602001806122fa6021913960400191505060405180910390fd5b6103e8600260003373ffffffffffffffffffffffffffffffffffffffff1673ffffffffffffffffffffffffffffffffffffffff1681526020019081526020016000206003015411610c3d576040517f08c379a00000000000000000000000000000000000000000000000000000000081526004018080602001828103825260268152602001806122aa6026913960400191505060405180910390fd5b600015156000803373ffffffffffffffffffffffffffffffffffffffff1673ffffffffffffffffffffffffffffffffffffffff168152602001908152602001600020600083815260200190815260200160002060009054906101000a900460ff16151514610cf6576040517f08c379a000000000000000000000000000000000000000000000000000000000815260040180806020018281038252602a8152602001806122d0602a913960400191505060405180910390fd5b6000600260003373ffffffffffffffffffffffffffffffffffffffff1673ffffffffffffffffffffffffffffffffffffffff16815260200190815260200160002060000154905060038481548110610d4a57fe5b906000526020600020906008020160050181908060018154018082558091505090600182039060005260206000200160009091929091909150555060016000803373ffffffffffffffffffffffffffffffffffffffff1673ffffffffffffffffffffffffffffffffffffffff168152602001908152602001600020600086815260200190815260200160002060006101000a81548160ff021916908315150217905550600160038581548110610dfc57fe5b906000526020600020906008020160040160008282540192505081905550600560038581548110610e2957fe5b9060005260206000209060080201600401541415610e9c57600160038581548110610e5057fe5b906000526020600020906008020160070160006101000a81548160ff0219169083151502179055504260038581548110610e8657fe5b9060005260206000209060080201600601819055505b6000803373ffffffffffffffffffffffffffffffffffffffff1673ffffffffffffffffffffffffffffffffffffffff168152602001908152602001600020600085815260200190815260200160002060009054906101000a900460ff1692505050919050565b6060600080600160003373ffffffffffffffffffffffffffffffffffffffff1673ffffffffffffffffffffffffffffffffffffffff1681526020019081526020016000206000015414610fbd576040517f08c379a00000000000000000000000000000000000000000000000000000000081526004018080602001828103825260118152602001807f4d757374206265204576616c7561746f7200000000000000000000000000000081525060200191505060405180910390fd5b6000600260003373ffffffffffffffffffffffffffffffffffffffff1673ffffffffffffffffffffffffffffffffffffffff1681526020019081526020016000206000015411611075576040517f08c379a00000000000000000000000000000000000000000000000000000000081526004018080602001828103825260198152602001807f4576616c7561746f72204d75737420526567697374657265640000000000000081525060200191505060405180910390fd5b6003838154811061108257fe5b9060005260206000209060080201600501600384815481106110a057fe5b9060005260206000209060080201600501805490508180548060200260200160405190810160405280929190818152602001828054801561110057602002820191906000526020600020905b8154815260200190600101908083116110ec575b5050505050915091509150915091565b60006060806000600260003373ffffffffffffffffffffffffffffffffffffffff1673ffffffffffffffffffffffffffffffffffffffff168152602001908152602001600020600001549350600260003373ffffffffffffffffffffffffffffffffffffffff1673ffffffffffffffffffffffffffffffffffffffff1681526020019081526020016000206001018054600181600116156101000203166002900480601f0160208091040260200160405190810160405280929190818152602001828054600181600116156101000203166002900480156112325780601f1061120757610100808354040283529160200191611232565b820191906000526020600020905b81548152906001019060200180831161121557829003601f168201915b50505050509250600260003373ffffffffffffffffffffffffffffffffffffffff1673ffffffffffffffffffffffffffffffffffffffff1681526020019081526020016000206002018054600181600116156101000203166002900480601f01602080910402602001604051908101604052809291908181526020018280546001816001161561010002031660029004801561130f5780601f106112e45761010080835404028352916020019161130f565b820191906000526020600020905b8154815290600101906020018083116112f257829003601f168201915b50505050509150600260003373ffffffffffffffffffffffffffffffffffffffff1673ffffffffffffffffffffffffffffffffffffffff16815260200190815260200160002060030154905090919293565b6000808114156114e0576000600260003373ffffffffffffffffffffffffffffffffffffffff1673ffffffffffffffffffffffffffffffffffffffff1681526020019081526020016000206000015414611423576040517f08c379a000000000000000000000000000000000000000000000000000000000815260040180806020018281038252601a8152602001807f4576616c7561746f722043616e27742062652053747564656e7400000000000081525060200191505060405180910390fd5b6000600160003373ffffffffffffffffffffffffffffffffffffffff1673ffffffffffffffffffffffffffffffffffffffff16815260200190815260200160002060000154146114db576040517f08c379a00000000000000000000000000000000000000000000000000000000081526004018080602001828103825260128152602001807f416c72656164792052656769737465726564000000000000000000000000000081525060200191505060405180910390fd5b611651565b6000600160003373ffffffffffffffffffffffffffffffffffffffff1673ffffffffffffffffffffffffffffffffffffffff1681526020019081526020016000206000015414611598576040517f08c379a000000000000000000000000000000000000000000000000000000000815260040180806020018281038252601a8152602001807f53747564656e742043616e2774206265204576616c7561746f7200000000000081525060200191505060405180910390fd5b6000600260003373ffffffffffffffffffffffffffffffffffffffff1673ffffffffffffffffffffffffffffffffffffffff1681526020019081526020016000206000015414611650576040517f08c379a00000000000000000000000000000000000000000000000000000000081526004018080602001828103825260128152602001807f416c72656164792052656769737465726564000000000000000000000000000081525060200191505060405180910390fd5b5b6004600081548092919060010191905055506040518060600160405280600454815260200184815260200183815250600160003373ffffffffffffffffffffffffffffffffffffffff1673ffffffffffffffffffffffffffffffffffffffff1681526020019081526020016000206000820151816000015560208201518160010190805190602001906116e592919061215a565b5060408201518160020155905050505050565b60045481565b6000600260003373ffffffffffffffffffffffffffffffffffffffff1673ffffffffffffffffffffffffffffffffffffffff16815260200190815260200160002060000154146117b6576040517f08c379a000000000000000000000000000000000000000000000000000000000815260040180806020018281038252600f8152602001807f4d7573742062652053747564656e74000000000000000000000000000000000081525060200191505060405180910390fd5b6000600160003373ffffffffffffffffffffffffffffffffffffffff1673ffffffffffffffffffffffffffffffffffffffff168152602001908152602001600020600001541161186e576040517f08c379a00000000000000000000000000000000000000000000000000000000081526004018080602001828103825260178152602001807f53747564656e74204d757374205265676973746572656400000000000000000081525060200191505060405180910390fd5b6118766121da565b828160000181905250818160200181905250600160003373ffffffffffffffffffffffffffffffffffffffff1673ffffffffffffffffffffffffffffffffffffffff1681526020019081526020016000206000015481604001818152505033816060019073ffffffffffffffffffffffffffffffffffffffff16908173ffffffffffffffffffffffffffffffffffffffff168152505060008160800181815250508060a001515060008160c001818152505060008160e001901515908115158152505060038190806001815401808255809150509060018203906000526020600020906008020160009091929091909150600082015181600001908051906020019061198392919061215a565b5060208201518160010190805190602001906119a092919061215a565b506040820151816002015560608201518160030160006101000a81548173ffffffffffffffffffffffffffffffffffffffff021916908373ffffffffffffffffffffffffffffffffffffffff1602179055506080820151816004015560a0820151816005019080519060200190611a18929190612237565b5060c0820151816006015560e08201518160070160006101000a81548160ff021916908315150217905550505050505050565b60006020528160005260406000206020528060005260406000206000915091509054906101000a900460ff1681565b60016000811415611bfa576000600260003373ffffffffffffffffffffffffffffffffffffffff1673ffffffffffffffffffffffffffffffffffffffff1681526020019081526020016000206000015414611b3d576040517f08c379a000000000000000000000000000000000000000000000000000000000815260040180806020018281038252601a8152602001807f4576616c7561746f722043616e27742062652053747564656e7400000000000081525060200191505060405180910390fd5b6000600160003373ffffffffffffffffffffffffffffffffffffffff1673ffffffffffffffffffffffffffffffffffffffff1681526020019081526020016000206000015414611bf5576040517f08c379a00000000000000000000000000000000000000000000000000000000081526004018080602001828103825260128152602001807f416c72656164792052656769737465726564000000000000000000000000000081525060200191505060405180910390fd5b611d6b565b6000600160003373ffffffffffffffffffffffffffffffffffffffff1673ffffffffffffffffffffffffffffffffffffffff1681526020019081526020016000206000015414611cb2576040517f08c379a000000000000000000000000000000000000000000000000000000000815260040180806020018281038252601a8152602001807f53747564656e742043616e2774206265204576616c7561746f7200000000000081525060200191505060405180910390fd5b6000600260003373ffffffffffffffffffffffffffffffffffffffff1673ffffffffffffffffffffffffffffffffffffffff1681526020019081526020016000206000015414611d6a576040517f08c379a00000000000000000000000000000000000000000000000000000000081526004018080602001828103825260128152602001807f416c72656164792052656769737465726564000000000000000000000000000081525060200191505060405180910390fd5b5b6005600081548092919060010191905055506040518060800160405280600554815260200185815260200184815260200183815250600260003373ffffffffffffffffffffffffffffffffffffffff1673ffffffffffffffffffffffffffffffffffffffff168152602001908152602001600020600082015181600001556020820151816001019080519060200190611e0592919061215a565b506040820151816002019080519060200190611e2292919061215a565b506060820151816003015590505050505050565b600060606000600160003373ffffffffffffffffffffffffffffffffffffffff1673ffffffffffffffffffffffffffffffffffffffff168152602001908152602001600020600001549250600160003373ffffffffffffffffffffffffffffffffffffffff1673ffffffffffffffffffffffffffffffffffffffff1681526020019081526020016000206001018054600181600116156101000203166002900480601f016020809104026020016040519081016040528092919081815260200182805460018160011615610100020316600290048015611f575780601f10611f2c57610100808354040283529160200191611f57565b820191906000526020600020905b815481529060010190602001808311611f3a57829003601f168201915b50505050509150600160003373ffffffffffffffffffffffffffffffffffffffff1673ffffffffffffffffffffffffffffffffffffffff168152602001908152602001600020600201549050909192565b60055481565b60038181548110611fbb57fe5b9060005260206000209060080201600091509050806000018054600181600116156101000203166002900480601f0160208091040260200160405190810160405280929190818152602001828054600181600116156101000203166002900480156120675780601f1061203c57610100808354040283529160200191612067565b820191906000526020600020905b81548152906001019060200180831161204a57829003601f168201915b505050505090806001018054600181600116156101000203166002900480601f0160208091040260200160405190810160405280929190818152602001828054600181600116156101000203166002900480156121055780601f106120da57610100808354040283529160200191612105565b820191906000526020600020905b8154815290600101906020018083116120e857829003601f168201915b5050505050908060020154908060030160009054906101000a900473ffffffffffffffffffffffffffffffffffffffff16908060040154908060060154908060070160009054906101000a900460ff16905087565b828054600181600116156101000203166002900490600052602060002090601f016020900481019282601f1061219b57805160ff19168380011785556121c9565b828001600101855582156121c9579182015b828111156121c85782518255916020019190600101906121ad565b5b5090506121d69190612284565b5090565b604051806101000160405280606081526020016060815260200160008152602001600073ffffffffffffffffffffffffffffffffffffffff1681526020016000815260200160608152602001600081526020016000151581525090565b828054828255906000526020600020908101928215612273579160200282015b82811115612272578251825591602001919060010190612257565b5b5090506122809190612284565b5090565b6122a691905b808211156122a257600081600090555060010161228a565b5090565b9056fe4e65656420637265646962696c6974792053636f7265204d6f7265207468616e203130303020596f75206861766520616c726561647920617070726f76656420746869732061737369676e6d656e7421596f7520446f6e2774204b6e6f77202c2057686174205465636820697420697320a265627a7a72315820faa198edfc33422d8ba580d1431aeb58fe56ff502ffbab95a653428986ec26cd64736f6c634300050c0032",
  "source": "pragma solidity ^0.5.12;\n\ncontract DSchool {\n    struct Student {\n        uint stdId;\n        string name;\n        uint age;\n    }\n    struct Approver{\n        uint approverId;\n        string name;\n        string skill;\n        uint skillRank;\n        // uint[] approvedTasks;\n    }\n    struct Task{\n        string name;\n        string tech;\n        uint stdId;\n        address student;\n        uint approveCount;\n        uint[] approvers;\n        uint approvedTime;\n        bool valid;\n    }\n    \n    mapping (address => mapping (uint => bool)) public approvedList;\n    mapping (address => Student) Std;\n    mapping (address => Approver) Evaluator;\n    Task[] public Assignments ;\n    uint public CurrentStdId = 0;\n    uint public CurrentEvaId = 0;\n    \n    modifier userRegister(uint number) {\n        if(number == 0){\n            require(Evaluator[msg.sender].approverId == 0,\"Evaluator Can't be Student\");\n            require(Std[msg.sender].stdId == 0,\"Already Registered\");\n        }else{\n            require(Std[msg.sender].stdId == 0,\"Student Can't be Evaluator\");\n            require(Evaluator[msg.sender].approverId == 0,\"Already Registered\");\n        }\n        _;\n    }\n    modifier onlyStudent() {\n        require(Evaluator[msg.sender].approverId == 0,\"Must be Student\");\n        require(Std[msg.sender].stdId > 0,\"Student Must Registered\");\n        _;\n    }\n    modifier onlyApprover() {\n        require(Std[msg.sender].stdId == 0,\"Must be Evaluator\");\n        require(Evaluator[msg.sender].approverId > 0,\"Evaluator Must Registered\");\n        _;\n    }\n    modifier eligibility(uint _position) {\n        require( keccak256(abi.encodePacked(Assignments[_position].tech)) ==  keccak256(abi.encodePacked(Evaluator[msg.sender].skill)),\"You Don't Know , What Tech it is \");\n        require( Evaluator[msg.sender].skillRank > 1000,\"Need credibility Score More than 1000 \");\n        // require(Assignments[_position].valid == false, \"Approval limit reached!\"); \n        require(approvedList[msg.sender][_position] == false, \"You have already approved this assignment!\");\n        _;\n    }\n    function setStudent( string memory _name, uint _age) public userRegister(0)  {\n        CurrentStdId++;\n        Std[msg.sender] = Student(CurrentStdId,_name, _age);\n    }\n    function getStudent() public view returns (uint _stdId,string memory _name, uint _age){\n        _stdId = Std[msg.sender].stdId;\n        _name = Std[msg.sender].name;\n        _age = Std[msg.sender].age;\n    }\n    function setApprover(string memory _name,string memory _skill, uint _skillRank) public userRegister(1) {\n        CurrentEvaId++;\n        Evaluator[msg.sender] = Approver(CurrentEvaId,_name, _skill,_skillRank);\n    }\n    function getApprover() public view returns (uint _evaId,string memory _name,string memory _skill, uint _skillRank){\n        _evaId = Evaluator[msg.sender].approverId;\n        _name = Evaluator[msg.sender].name;\n        _skill = Evaluator[msg.sender].skill;\n        _skillRank = Evaluator[msg.sender].skillRank;\n    }\n    function taskSubmission(string memory _name,string memory _tech) public onlyStudent{\n        Task memory task;\n        task.name = _name;\n        task.tech = _tech;\n        task.stdId = Std[msg.sender].stdId;\n        task.student = msg.sender;\n        task.approveCount = 0;\n        task.approvers;\n        task.approvedTime = 0;\n        task.valid = false;\n        Assignments.push(task);\n    }\n    function Upvoting(uint _position) public onlyApprover eligibility(_position) returns (bool) {\n        // uint counter = Assignments[_position].approveCount;\n        uint evalId = Evaluator[msg.sender].approverId;\n        Assignments[_position].approvers.push(evalId);\n        approvedList[msg.sender][_position] = true;\n        Assignments[_position].approveCount += 1;\n        if(Assignments[_position].approveCount == 5){\n            Assignments[_position].valid = true;\n            Assignments[_position].approvedTime = now;\n        }\n        return approvedList[msg.sender][_position];\n    }\n    \n    function viewApprovers (uint _position) public view onlyApprover returns (uint[] memory, uint){\n        return (Assignments[_position].approvers, Assignments[_position].approvers.length);\n    }\n}",
  "sourcePath": "/home/denny/Code/tasks/DSchool/contracts/DSchool.sol",
  "compiler": {
    "name": "solc",
    "version": "0.5.12+commit.7709ece9.Emscripten.clang"
  },
  "schemaVersion": "3.0.16",
  "updatedAt": "2019-10-17T18:52:42.813Z",
  "devdoc": {
    "methods": {}
  },
  "userdoc": {
    "methods": {}
  }
}