{
  "contractName": "DSchool",
  "abi": [
    {
      "constant": true,
      "inputs": [
        {
          "internalType": "uint256",
          "name": "",
          "type": "uint256"
        }
      ],
      "name": "Assignments",
      "outputs": [
        {
          "internalType": "string",
          "name": "name",
          "type": "string"
        },
        {
          "internalType": "string",
          "name": "tech",
          "type": "string"
        },
        {
          "internalType": "uint256",
          "name": "stdId",
          "type": "uint256"
        },
        {
          "internalType": "address",
          "name": "student",
          "type": "address"
        },
        {
          "internalType": "uint256",
          "name": "approvedTime",
          "type": "uint256"
        },
        {
          "internalType": "bool",
          "name": "valid",
          "type": "bool"
        }
      ],
      "payable": false,
      "stateMutability": "view",
      "type": "function"
    },
    {
      "constant": true,
      "inputs": [],
      "name": "CurrentEvaId",
      "outputs": [
        {
          "internalType": "uint256",
          "name": "",
          "type": "uint256"
        }
      ],
      "payable": false,
      "stateMutability": "view",
      "type": "function"
    },
    {
      "constant": true,
      "inputs": [],
      "name": "CurrentStdId",
      "outputs": [
        {
          "internalType": "uint256",
          "name": "",
          "type": "uint256"
        }
      ],
      "payable": false,
      "stateMutability": "view",
      "type": "function"
    },
    {
      "constant": false,
      "inputs": [
        {
          "internalType": "string",
          "name": "_name",
          "type": "string"
        },
        {
          "internalType": "uint256",
          "name": "_age",
          "type": "uint256"
        }
      ],
      "name": "setStudent",
      "outputs": [],
      "payable": false,
      "stateMutability": "nonpayable",
      "type": "function"
    },
    {
      "constant": true,
      "inputs": [
        {
          "internalType": "uint256",
          "name": "_stdId",
          "type": "uint256"
        }
      ],
      "name": "getStudent",
      "outputs": [
        {
          "internalType": "string",
          "name": "_name",
          "type": "string"
        },
        {
          "internalType": "uint256",
          "name": "_age",
          "type": "uint256"
        }
      ],
      "payable": false,
      "stateMutability": "view",
      "type": "function"
    },
    {
      "constant": false,
      "inputs": [
        {
          "internalType": "string",
          "name": "_name",
          "type": "string"
        },
        {
          "internalType": "string",
          "name": "_skill",
          "type": "string"
        },
        {
          "internalType": "uint256",
          "name": "_skillRank",
          "type": "uint256"
        }
      ],
      "name": "setApprover",
      "outputs": [],
      "payable": false,
      "stateMutability": "nonpayable",
      "type": "function"
    },
    {
      "constant": true,
      "inputs": [
        {
          "internalType": "uint256",
          "name": "evaId",
          "type": "uint256"
        }
      ],
      "name": "getApprover",
      "outputs": [
        {
          "internalType": "string",
          "name": "_name",
          "type": "string"
        },
        {
          "internalType": "string",
          "name": "_skill",
          "type": "string"
        },
        {
          "internalType": "uint256",
          "name": "_skillRank",
          "type": "uint256"
        }
      ],
      "payable": false,
      "stateMutability": "view",
      "type": "function"
    },
    {
      "constant": false,
      "inputs": [
        {
          "internalType": "string",
          "name": "_name",
          "type": "string"
        },
        {
          "internalType": "string",
          "name": "_tech",
          "type": "string"
        }
      ],
      "name": "taskSubmission",
      "outputs": [],
      "payable": false,
      "stateMutability": "nonpayable",
      "type": "function"
    },
    {
      "constant": false,
      "inputs": [
        {
          "internalType": "uint256",
          "name": "_position",
          "type": "uint256"
        }
      ],
      "name": "Upvoting",
      "outputs": [],
      "payable": false,
      "stateMutability": "nonpayable",
      "type": "function"
    }
  ],
  "bytecode": "0x60806040526000600355600060045534801561001a57600080fd5b50611d9e8061002a6000396000f3fe608060405234801561001057600080fd5b50600436106100935760003560e01c8063a3d425b211610066578063a3d425b214610353578063a436f87f14610371578063b0d39541146104c3578063d4b6c9611461061f578063e110f8201461063d57610093565b806321708dd714610098578063642f9163146100c65780637157e493146101745780639b4d52dd1461028e575b600080fd5b6100c4600480360360208110156100ae57600080fd5b810190808035906020019092919050505061079c565b005b6100f2600480360360208110156100dc57600080fd5b8101908080359060200190929190505050610c71565b6040518080602001838152602001828103825284818151815260200191508051906020019080838360005b8381101561013857808201518184015260208101905061011d565b50505050905090810190601f1680156101655780820380516001836020036101000a031916815260200191505b50935050505060405180910390f35b6101a06004803603602081101561018a57600080fd5b8101908080359060200190929190505050610d9a565b604051808060200180602001848152602001838103835286818151815260200191508051906020019080838360005b838110156101ea5780820151818401526020810190506101cf565b50505050905090810190601f1680156102175780820380516001836020036101000a031916815260200191505b50838103825285818151815260200191508051906020019080838360005b83811015610250578082015181840152602081019050610235565b50505050905090810190601f16801561027d5780820380516001836020036101000a031916815260200191505b509550505050505060405180910390f35b610351600480360360408110156102a457600080fd5b81019080803590602001906401000000008111156102c157600080fd5b8201836020820111156102d357600080fd5b803590602001918460018302840111640100000000831117156102f557600080fd5b91908080601f016020809104026020016040519081016040528093929190818152602001838380828437600081840152601f19601f82011690508083019250505050505050919291929080359060200190929190505050610fa5565b005b61035b611339565b6040518082815260200191505060405180910390f35b6104c16004803603604081101561038757600080fd5b81019080803590602001906401000000008111156103a457600080fd5b8201836020820111156103b657600080fd5b803590602001918460018302840111640100000000831117156103d857600080fd5b91908080601f016020809104026020016040519081016040528093929190818152602001838380828437600081840152601f19601f8201169050808301925050505050505091929192908035906020019064010000000081111561043b57600080fd5b82018360208201111561044d57600080fd5b8035906020019184600183028401116401000000008311171561046f57600080fd5b91908080601f016020809104026020016040519081016040528093929190818152602001838380828437600081840152601f19601f82011690508083019250505050505050919291929050505061133f565b005b61061d600480360360608110156104d957600080fd5b81019080803590602001906401000000008111156104f657600080fd5b82018360208201111561050857600080fd5b8035906020019184600183028401116401000000008311171561052a57600080fd5b91908080601f016020809104026020016040519081016040528093929190818152602001838380828437600081840152601f19601f8201169050808301925050505050505091929192908035906020019064010000000081111561058d57600080fd5b82018360208201111561059f57600080fd5b803590602001918460018302840111640100000000831117156105c157600080fd5b91908080601f016020809104026020016040519081016040528093929190818152602001838380828437600081840152601f19601f82011690508083019250505050505050919291929080359060200190929190505050611675565b005b610627611a2f565b6040518082815260200191505060405180910390f35b6106696004803603602081101561065357600080fd5b8101908080359060200190929190505050611a35565b6040518080602001806020018781526020018673ffffffffffffffffffffffffffffffffffffffff1673ffffffffffffffffffffffffffffffffffffffff16815260200185815260200184151515158152602001838103835289818151815260200191508051906020019080838360005b838110156106f55780820151818401526020810190506106da565b50505050905090810190601f1680156107225780820380516001836020036101000a031916815260200191505b50838103825288818151815260200191508051906020019080838360005b8381101561075b578082015181840152602081019050610740565b50505050905090810190601f1680156107885780820380516001836020036101000a031916815260200191505b509850505050505050505060405180910390f35b60008060003373ffffffffffffffffffffffffffffffffffffffff1673ffffffffffffffffffffffffffffffffffffffff1681526020019081526020016000206000015414610853576040517f08c379a00000000000000000000000000000000000000000000000000000000081526004018080602001828103825260118152602001807f4d757374206265204576616c7561746f7200000000000000000000000000000081525060200191505060405180910390fd5b6000600160003373ffffffffffffffffffffffffffffffffffffffff1673ffffffffffffffffffffffffffffffffffffffff168152602001908152602001600020600001541161090b576040517f08c379a00000000000000000000000000000000000000000000000000000000081526004018080602001828103825260178152602001807f4576616c7561746f204d7573742052656769737465726400000000000000000081525060200191505060405180910390fd5b80600160003373ffffffffffffffffffffffffffffffffffffffff1673ffffffffffffffffffffffffffffffffffffffff16815260200190815260200160002060020160405160200180828054600181600116156101000203166002900480156109ac5780601f1061098a5761010080835404028352918201916109ac565b820191906000526020600020905b815481529060010190602001808311610998575b505091505060405160208183030381529060405280519060200120600282815481106109d457fe5b90600052602060002090600702016001016040516020018082805460018160011615610100020316600290048015610a435780601f10610a21576101008083540402835291820191610a43565b820191906000526020600020905b815481529060010190602001808311610a2f575b50509150506040516020818303038152906040528051906020012014610ab4576040517f08c379a0000000000000000000000000000000000000000000000000000000008152600401808060200182810382526021815260200180611d496021913960400191505060405180910390fd5b6103e8600160003373ffffffffffffffffffffffffffffffffffffffff1673ffffffffffffffffffffffffffffffffffffffff1681526020019081526020016000206003015411610b50576040517f08c379a0000000000000000000000000000000000000000000000000000000008152600401808060200182810382526026815260200180611d236026913960400191505060405180910390fd5b60028281548110610b5d57fe5b9060005260206000209060070201600401600160003373ffffffffffffffffffffffffffffffffffffffff1673ffffffffffffffffffffffffffffffffffffffff16815260200190815260200160002060000154908060018154018082558091505090600182039060005260206000200160009091929091909150555060028281548110610be757fe5b906000526020600020906007020160060160009054906101000a900460ff16610c6d57600560028381548110610c1957fe5b9060005260206000209060070201600401805490501415610c6c57600160028381548110610c4357fe5b906000526020600020906007020160060160006101000a81548160ff0219169083151502179055505b5b5050565b606060008060003373ffffffffffffffffffffffffffffffffffffffff1673ffffffffffffffffffffffffffffffffffffffff1681526020019081526020016000206001018054600181600116156101000203166002900480601f016020809104026020016040519081016040528092919081815260200182805460018160011615610100020316600290048015610d4a5780601f10610d1f57610100808354040283529160200191610d4a565b820191906000526020600020905b815481529060010190602001808311610d2d57829003601f168201915b505050505091506000803373ffffffffffffffffffffffffffffffffffffffff1673ffffffffffffffffffffffffffffffffffffffff168152602001908152602001600020600201549050915091565b6060806000600160003373ffffffffffffffffffffffffffffffffffffffff1673ffffffffffffffffffffffffffffffffffffffff1681526020019081526020016000206001018054600181600116156101000203166002900480601f016020809104026020016040519081016040528092919081815260200182805460018160011615610100020316600290048015610e755780601f10610e4a57610100808354040283529160200191610e75565b820191906000526020600020905b815481529060010190602001808311610e5857829003601f168201915b50505050509250600160003373ffffffffffffffffffffffffffffffffffffffff1673ffffffffffffffffffffffffffffffffffffffff1681526020019081526020016000206002018054600181600116156101000203166002900480601f016020809104026020016040519081016040528092919081815260200182805460018160011615610100020316600290048015610f525780601f10610f2757610100808354040283529160200191610f52565b820191906000526020600020905b815481529060010190602001808311610f3557829003601f168201915b50505050509150600160003373ffffffffffffffffffffffffffffffffffffffff1673ffffffffffffffffffffffffffffffffffffffff1681526020019081526020016000206003015490509193909250565b600080811415611123576000600160003373ffffffffffffffffffffffffffffffffffffffff1673ffffffffffffffffffffffffffffffffffffffff1681526020019081526020016000206000015414611067576040517f08c379a000000000000000000000000000000000000000000000000000000000815260040180806020018281038252601a8152602001807f4576616c7561746f722043616e27742062652053747564656e7400000000000081525060200191505060405180910390fd5b60008060003373ffffffffffffffffffffffffffffffffffffffff1673ffffffffffffffffffffffffffffffffffffffff168152602001908152602001600020600001541461111e576040517f08c379a00000000000000000000000000000000000000000000000000000000081526004018080602001828103825260118152602001807f416c72656164792052656769737465726400000000000000000000000000000081525060200191505060405180910390fd5b611293565b60008060003373ffffffffffffffffffffffffffffffffffffffff1673ffffffffffffffffffffffffffffffffffffffff16815260200190815260200160002060000154146111da576040517f08c379a000000000000000000000000000000000000000000000000000000000815260040180806020018281038252601a8152602001807f53747564656e742043616e2774206265204576616c7561746f7200000000000081525060200191505060405180910390fd5b6000600160003373ffffffffffffffffffffffffffffffffffffffff1673ffffffffffffffffffffffffffffffffffffffff1681526020019081526020016000206000015414611292576040517f08c379a00000000000000000000000000000000000000000000000000000000081526004018080602001828103825260118152602001807f416c72656164792052656769737465726400000000000000000000000000000081525060200191505060405180910390fd5b5b60036000815480929190600101919050555060405180606001604052806003548152602001848152602001838152506000803373ffffffffffffffffffffffffffffffffffffffff1673ffffffffffffffffffffffffffffffffffffffff168152602001908152602001600020600082015181600001556020820151816001019080519060200190611326929190611bdb565b5060408201518160020155905050505050565b60035481565b6000600160003373ffffffffffffffffffffffffffffffffffffffff1673ffffffffffffffffffffffffffffffffffffffff16815260200190815260200160002060000154146113f7576040517f08c379a000000000000000000000000000000000000000000000000000000000815260040180806020018281038252600f8152602001807f4d7573742062652053747564656e74000000000000000000000000000000000081525060200191505060405180910390fd5b60008060003373ffffffffffffffffffffffffffffffffffffffff1673ffffffffffffffffffffffffffffffffffffffff16815260200190815260200160002060000154116114ae576040517f08c379a00000000000000000000000000000000000000000000000000000000081526004018080602001828103825260168152602001807f53747564656e74204d757374205265676973746572640000000000000000000081525060200191505060405180910390fd5b6114b6611c5b565b8281600001819052508181602001819052506000803373ffffffffffffffffffffffffffffffffffffffff1673ffffffffffffffffffffffffffffffffffffffff1681526020019081526020016000206000015481604001818152505033816060019073ffffffffffffffffffffffffffffffffffffffff16908173ffffffffffffffffffffffffffffffffffffffff168152505080608001515060008160a001818152505060008160c00190151590811515815250506002819080600181540180825580915050906001820390600052602060002090600702016000909192909190915060008201518160000190805190602001906115b7929190611bdb565b5060208201518160010190805190602001906115d4929190611bdb565b506040820151816002015560608201518160030160006101000a81548173ffffffffffffffffffffffffffffffffffffffff021916908373ffffffffffffffffffffffffffffffffffffffff1602179055506080820151816004019080519060200190611642929190611cb0565b5060a0820151816005015560c08201518160060160006101000a81548160ff021916908315150217905550505050505050565b600160008114156117f4576000600160003373ffffffffffffffffffffffffffffffffffffffff1673ffffffffffffffffffffffffffffffffffffffff1681526020019081526020016000206000015414611738576040517f08c379a000000000000000000000000000000000000000000000000000000000815260040180806020018281038252601a8152602001807f4576616c7561746f722043616e27742062652053747564656e7400000000000081525060200191505060405180910390fd5b60008060003373ffffffffffffffffffffffffffffffffffffffff1673ffffffffffffffffffffffffffffffffffffffff16815260200190815260200160002060000154146117ef576040517f08c379a00000000000000000000000000000000000000000000000000000000081526004018080602001828103825260118152602001807f416c72656164792052656769737465726400000000000000000000000000000081525060200191505060405180910390fd5b611964565b60008060003373ffffffffffffffffffffffffffffffffffffffff1673ffffffffffffffffffffffffffffffffffffffff16815260200190815260200160002060000154146118ab576040517f08c379a000000000000000000000000000000000000000000000000000000000815260040180806020018281038252601a8152602001807f53747564656e742043616e2774206265204576616c7561746f7200000000000081525060200191505060405180910390fd5b6000600160003373ffffffffffffffffffffffffffffffffffffffff1673ffffffffffffffffffffffffffffffffffffffff1681526020019081526020016000206000015414611963576040517f08c379a00000000000000000000000000000000000000000000000000000000081526004018080602001828103825260118152602001807f416c72656164792052656769737465726400000000000000000000000000000081525060200191505060405180910390fd5b5b6004600081548092919060010191905055506040518060800160405280600454815260200185815260200184815260200183815250600160003373ffffffffffffffffffffffffffffffffffffffff1673ffffffffffffffffffffffffffffffffffffffff1681526020019081526020016000206000820151816000015560208201518160010190805190602001906119fe929190611bdb565b506040820151816002019080519060200190611a1b929190611bdb565b506060820151816003015590505050505050565b60045481565b60028181548110611a4257fe5b9060005260206000209060070201600091509050806000018054600181600116156101000203166002900480601f016020809104026020016040519081016040528092919081815260200182805460018160011615610100020316600290048015611aee5780601f10611ac357610100808354040283529160200191611aee565b820191906000526020600020905b815481529060010190602001808311611ad157829003601f168201915b505050505090806001018054600181600116156101000203166002900480601f016020809104026020016040519081016040528092919081815260200182805460018160011615610100020316600290048015611b8c5780601f10611b6157610100808354040283529160200191611b8c565b820191906000526020600020905b815481529060010190602001808311611b6f57829003601f168201915b5050505050908060020154908060030160009054906101000a900473ffffffffffffffffffffffffffffffffffffffff16908060050154908060060160009054906101000a900460ff16905086565b828054600181600116156101000203166002900490600052602060002090601f016020900481019282601f10611c1c57805160ff1916838001178555611c4a565b82800160010185558215611c4a579182015b82811115611c49578251825591602001919060010190611c2e565b5b509050611c579190611cfd565b5090565b6040518060e00160405280606081526020016060815260200160008152602001600073ffffffffffffffffffffffffffffffffffffffff16815260200160608152602001600081526020016000151581525090565b828054828255906000526020600020908101928215611cec579160200282015b82811115611ceb578251825591602001919060010190611cd0565b5b509050611cf99190611cfd565b5090565b611d1f91905b80821115611d1b576000816000905550600101611d03565b5090565b9056fe4e65656420637265646962696c6974792053636f7265204d6f7265207468616e203130303020596f7520446f6e2774204b6e6f77202c2057686174205465636820697420697320a265627a7a7231582095f7339f4af4c2d26a01db2e702422b96998ea6cd586955f0ec05167947ae8aa64736f6c634300050c0032",
  "source": "pragma solidity 0.5.12;\n\ncontract DSchool {\n    struct Student {\n        uint stdId;\n        string name;\n        uint age;\n    }\n    struct Approver{\n        uint approverId;\n        string name;\n        string skill;\n        uint skillRank;\n    }\n    struct Task{\n        string name;\n        string tech;\n        uint stdId;\n        address student;\n        uint[] approvers;\n        uint approvedTime;\n        bool valid;\n    }\n    mapping (address => Student) Std;\n    mapping (address => Approver) Evaluator ;\n    Task[] public Assignments ;\n    uint public CurrentStdId = 0;\n    uint public CurrentEvaId = 0;\n    modifier userRegister(uint number) {\n        if(number == 0){\n            require(Evaluator[msg.sender].approverId == 0,\"Evaluator Can't be Student\");\n            require(Std[msg.sender].stdId == 0,\"Already Registerd\");\n        }else{\n            require(Std[msg.sender].stdId == 0,\"Student Can't be Evaluator\");\n            require(Evaluator[msg.sender].approverId == 0,\"Already Registerd\");\n        }\n        _;\n    }\n    modifier onlyStudent() {\n        require(Evaluator[msg.sender].approverId == 0,\"Must be Student\");\n        require(Std[msg.sender].stdId > 0,\"Student Must Registerd\");\n        _;\n    }\n    modifier onlyapprover() {\n        require(Std[msg.sender].stdId == 0,\"Must be Evaluator\");\n        require(Evaluator[msg.sender].approverId > 0,\"Evaluato Must Registerd\");\n        _;\n    }\n    modifier eligibility(uint _position) {\n        require( keccak256(abi.encodePacked(Assignments[_position].tech)) ==  keccak256(abi.encodePacked(Evaluator[msg.sender].skill)),\"You Don't Know , What Tech it is \");\n        require( Evaluator[msg.sender].skillRank > 1000,\"Need credibility Score More than 1000 \");\n        _;\n    }\n    function setStudent( string memory _name, uint _age) public userRegister(0)  {\n        CurrentStdId++;\n        Std[msg.sender] = Student(CurrentStdId,_name, _age);\n    }\n    function getStudent(uint _stdId) public view returns (string memory _name, uint _age){\n        _name = Std[msg.sender].name;\n        _age = Std[msg.sender].age;\n    }\n    function setApprover(string memory _name,string memory _skill, uint _skillRank) public userRegister(1) {\n        CurrentEvaId++;\n        Evaluator[msg.sender] = Approver(CurrentEvaId,_name, _skill,_skillRank);\n    }\n    function getApprover(uint evaId) public view returns (string memory _name,string memory _skill, uint _skillRank){\n        _name = Evaluator[msg.sender].name;\n        _skill = Evaluator[msg.sender].skill;\n        _skillRank = Evaluator[msg.sender].skillRank;\n    }\n    function taskSubmission(string memory _name,string memory _tech) public onlyStudent{\n        Task memory task;\n        task.name = _name;\n        task.tech = _tech;\n        task.stdId = Std[msg.sender].stdId;\n        task.student = msg.sender;\n        task.approvers;\n        task.approvedTime = 0;\n        task.valid = false;\n        Assignments.push(task);\n    }\n    function Upvoting(uint _position) public onlyapprover eligibility(_position) {\n        Assignments[_position].approvers.push(Evaluator[msg.sender].approverId);\n        if (!Assignments[_position].valid) {\n            if(Assignments[_position].approvers.length == 5){\n                Assignments[_position].valid = true;\n            }\n        } \n    }\n}",
  "sourcePath": "/home/denny/Code/tasks/DSchool/contracts/DSchool.sol",
  "compiler": {
    "name": "solc",
    "version": "0.5.12+commit.7709ece9.Emscripten.clang"
  },
  "schemaVersion": "3.0.16",
  "updatedAt": "2019-10-17T08:13:43.860Z",
  "devdoc": {
    "methods": {}
  },
  "userdoc": {
    "methods": {}
  }
}